{
  "_format": "hh-sol-artifact-1",
  "contractName": "EnergyTrading",
  "sourceName": "contracts/EnergyTrading.sol",
  "abi": [
    {
      "inputs": [],
      "stateMutability": "nonpayable",
      "type": "constructor"
    },
    {
      "anonymous": false,
      "inputs": [
        {
          "indexed": true,
          "internalType": "uint256",
          "name": "tradeId",
          "type": "uint256"
        },
        {
          "indexed": true,
          "internalType": "uint256",
          "name": "listingId",
          "type": "uint256"
        },
        {
          "indexed": true,
          "internalType": "address",
          "name": "buyer",
          "type": "address"
        },
        {
          "indexed": false,
          "internalType": "address",
          "name": "seller",
          "type": "address"
        },
        {
          "indexed": false,
          "internalType": "string",
          "name": "buyerId",
          "type": "string"
        },
        {
          "indexed": false,
          "internalType": "string",
          "name": "sellerId",
          "type": "string"
        },
        {
          "indexed": false,
          "internalType": "uint256",
          "name": "energyAmount",
          "type": "uint256"
        },
        {
          "indexed": false,
          "internalType": "uint256",
          "name": "totalPaid",
          "type": "uint256"
        },
        {
          "indexed": false,
          "internalType": "uint256",
          "name": "sellerReceived",
          "type": "uint256"
        },
        {
          "indexed": false,
          "internalType": "uint256",
          "name": "timestamp",
          "type": "uint256"
        }
      ],
      "name": "EnergyPurchased",
      "type": "event"
    },
    {
      "anonymous": false,
      "inputs": [
        {
          "indexed": false,
          "internalType": "uint256",
          "name": "newFee",
          "type": "uint256"
        }
      ],
      "name": "FeeUpdated",
      "type": "event"
    },
    {
      "anonymous": false,
      "inputs": [
        {
          "indexed": true,
          "internalType": "uint256",
          "name": "listingId",
          "type": "uint256"
        },
        {
          "indexed": true,
          "internalType": "address",
          "name": "seller",
          "type": "address"
        }
      ],
      "name": "ListingCancelled",
      "type": "event"
    },
    {
      "anonymous": false,
      "inputs": [
        {
          "indexed": true,
          "internalType": "uint256",
          "name": "id",
          "type": "uint256"
        },
        {
          "indexed": true,
          "internalType": "address",
          "name": "seller",
          "type": "address"
        },
        {
          "indexed": false,
          "internalType": "string",
          "name": "sellerId",
          "type": "string"
        },
        {
          "indexed": false,
          "internalType": "uint256",
          "name": "energyAmount",
          "type": "uint256"
        },
        {
          "indexed": false,
          "internalType": "uint256",
          "name": "pricePerUnit",
          "type": "uint256"
        },
        {
          "indexed": false,
          "internalType": "uint256",
          "name": "totalPrice",
          "type": "uint256"
        },
        {
          "indexed": false,
          "internalType": "uint256",
          "name": "timestamp",
          "type": "uint256"
        }
      ],
      "name": "ListingCreated",
      "type": "event"
    },
    {
      "anonymous": false,
      "inputs": [
        {
          "indexed": true,
          "internalType": "address",
          "name": "user",
          "type": "address"
        },
        {
          "indexed": false,
          "internalType": "uint256",
          "name": "amount",
          "type": "uint256"
        }
      ],
      "name": "Withdrawn",
      "type": "event"
    },
    {
      "inputs": [
        {
          "internalType": "uint256",
          "name": "_listingId",
          "type": "uint256"
        },
        {
          "internalType": "string",
          "name": "_buyerId",
          "type": "string"
        }
      ],
      "name": "buyEnergy",
      "outputs": [],
      "stateMutability": "payable",
      "type": "function"
    },
    {
      "inputs": [
        {
          "internalType": "address",
          "name": "",
          "type": "address"
        },
        {
          "internalType": "uint256",
          "name": "",
          "type": "uint256"
        }
      ],
      "name": "buyerTrades",
      "outputs": [
        {
          "internalType": "uint256",
          "name": "",
          "type": "uint256"
        }
      ],
      "stateMutability": "view",
      "type": "function"
    },
    {
      "inputs": [
        {
          "internalType": "uint256",
          "name": "_listingId",
          "type": "uint256"
        }
      ],
      "name": "cancelListing",
      "outputs": [],
      "stateMutability": "nonpayable",
      "type": "function"
    },
    {
      "inputs": [
        {
          "internalType": "uint256",
          "name": "_energyAmount",
          "type": "uint256"
        },
        {
          "internalType": "uint256",
          "name": "_pricePerUnit",
          "type": "uint256"
        },
        {
          "internalType": "string",
          "name": "_sellerId",
          "type": "string"
        }
      ],
      "name": "createListing",
      "outputs": [
        {
          "internalType": "uint256",
          "name": "",
          "type": "uint256"
        }
      ],
      "stateMutability": "nonpayable",
      "type": "function"
    },
    {
      "inputs": [
        {
          "internalType": "uint256",
          "name": "_id",
          "type": "uint256"
        }
      ],
      "name": "getActiveListing",
      "outputs": [
        {
          "components": [
            {
              "internalType": "uint256",
              "name": "id",
              "type": "uint256"
            },
            {
              "internalType": "address payable",
              "name": "seller",
              "type": "address"
            },
            {
              "internalType": "string",
              "name": "sellerId",
              "type": "string"
            },
            {
              "internalType": "uint256",
              "name": "energyAmount",
              "type": "uint256"
            },
            {
              "internalType": "uint256",
              "name": "pricePerUnit",
              "type": "uint256"
            },
            {
              "internalType": "uint256",
              "name": "totalPrice",
              "type": "uint256"
            },
            {
              "internalType": "uint256",
              "name": "timestamp",
              "type": "uint256"
            },
            {
              "internalType": "enum EnergyTrading.ListingStatus",
              "name": "status",
              "type": "uint8"
            }
          ],
          "internalType": "struct EnergyTrading.EnergyListing",
          "name": "",
          "type": "tuple"
        }
      ],
      "stateMutability": "view",
      "type": "function"
    },
    {
      "inputs": [],
      "name": "getActiveListingIds",
      "outputs": [
        {
          "internalType": "uint256[]",
          "name": "",
          "type": "uint256[]"
        }
      ],
      "stateMutability": "view",
      "type": "function"
    },
    {
      "inputs": [
        {
          "internalType": "address",
          "name": "_buyer",
          "type": "address"
        }
      ],
      "name": "getBuyerTrades",
      "outputs": [
        {
          "internalType": "uint256[]",
          "name": "",
          "type": "uint256[]"
        }
      ],
      "stateMutability": "view",
      "type": "function"
    },
    {
      "inputs": [
        {
          "internalType": "address",
          "name": "_seller",
          "type": "address"
        }
      ],
      "name": "getSellerListings",
      "outputs": [
        {
          "internalType": "uint256[]",
          "name": "",
          "type": "uint256[]"
        }
      ],
      "stateMutability": "view",
      "type": "function"
    },
    {
      "inputs": [],
      "name": "getStats",
      "outputs": [
        {
          "internalType": "uint256",
          "name": "_listingCount",
          "type": "uint256"
        },
        {
          "internalType": "uint256",
          "name": "_tradeCount",
          "type": "uint256"
        },
        {
          "internalType": "uint256",
          "name": "_totalEnergyTraded",
          "type": "uint256"
        },
        {
          "internalType": "uint256",
          "name": "_totalVolumeWei",
          "type": "uint256"
        },
        {
          "internalType": "uint256",
          "name": "_activeCount",
          "type": "uint256"
        }
      ],
      "stateMutability": "view",
      "type": "function"
    },
    {
      "inputs": [
        {
          "internalType": "uint256",
          "name": "_id",
          "type": "uint256"
        }
      ],
      "name": "getTrade",
      "outputs": [
        {
          "components": [
            {
              "internalType": "uint256",
              "name": "id",
              "type": "uint256"
            },
            {
              "internalType": "uint256",
              "name": "listingId",
              "type": "uint256"
            },
            {
              "internalType": "address",
              "name": "buyer",
              "type": "address"
            },
            {
              "internalType": "address",
              "name": "seller",
              "type": "address"
            },
            {
              "internalType": "string",
              "name": "buyerId",
              "type": "string"
            },
            {
              "internalType": "string",
              "name": "sellerId",
              "type": "string"
            },
            {
              "internalType": "uint256",
              "name": "energyAmount",
              "type": "uint256"
            },
            {
              "internalType": "uint256",
              "name": "totalPaid",
              "type": "uint256"
            },
            {
              "internalType": "uint256",
              "name": "platformFee",
              "type": "uint256"
            },
            {
              "internalType": "uint256",
              "name": "sellerReceived",
              "type": "uint256"
            },
            {
              "internalType": "uint256",
              "name": "timestamp",
              "type": "uint256"
            },
            {
              "internalType": "uint256",
              "name": "blockNumber",
              "type": "uint256"
            }
          ],
          "internalType": "struct EnergyTrading.Trade",
          "name": "",
          "type": "tuple"
        }
      ],
      "stateMutability": "view",
      "type": "function"
    },
    {
      "inputs": [],
      "name": "listingCount",
      "outputs": [
        {
          "internalType": "uint256",
          "name": "",
          "type": "uint256"
        }
      ],
      "stateMutability": "view",
      "type": "function"
    },
    {
      "inputs": [
        {
          "internalType": "uint256",
          "name": "",
          "type": "uint256"
        }
      ],
      "name": "listings",
      "outputs": [
        {
          "internalType": "uint256",
          "name": "id",
          "type": "uint256"
        },
        {
          "internalType": "address payable",
          "name": "seller",
          "type": "address"
        },
        {
          "internalType": "string",
          "name": "sellerId",
          "type": "string"
        },
        {
          "internalType": "uint256",
          "name": "energyAmount",
          "type": "uint256"
        },
        {
          "internalType": "uint256",
          "name": "pricePerUnit",
          "type": "uint256"
        },
        {
          "internalType": "uint256",
          "name": "totalPrice",
          "type": "uint256"
        },
        {
          "internalType": "uint256",
          "name": "timestamp",
          "type": "uint256"
        },
        {
          "internalType": "enum EnergyTrading.ListingStatus",
          "name": "status",
          "type": "uint8"
        }
      ],
      "stateMutability": "view",
      "type": "function"
    },
    {
      "inputs": [],
      "name": "owner",
      "outputs": [
        {
          "internalType": "address",
          "name": "",
          "type": "address"
        }
      ],
      "stateMutability": "view",
      "type": "function"
    },
    {
      "inputs": [
        {
          "internalType": "address",
          "name": "",
          "type": "address"
        }
      ],
      "name": "pendingWithdrawals",
      "outputs": [
        {
          "internalType": "uint256",
          "name": "",
          "type": "uint256"
        }
      ],
      "stateMutability": "view",
      "type": "function"
    },
    {
      "inputs": [],
      "name": "platformFeePercent",
      "outputs": [
        {
          "internalType": "uint256",
          "name": "",
          "type": "uint256"
        }
      ],
      "stateMutability": "view",
      "type": "function"
    },
    {
      "inputs": [
        {
          "internalType": "address",
          "name": "",
          "type": "address"
        },
        {
          "internalType": "uint256",
          "name": "",
          "type": "uint256"
        }
      ],
      "name": "sellerListings",
      "outputs": [
        {
          "internalType": "uint256",
          "name": "",
          "type": "uint256"
        }
      ],
      "stateMutability": "view",
      "type": "function"
    },
    {
      "inputs": [
        {
          "internalType": "uint256",
          "name": "_newFee",
          "type": "uint256"
        }
      ],
      "name": "setPlatformFee",
      "outputs": [],
      "stateMutability": "nonpayable",
      "type": "function"
    },
    {
      "inputs": [],
      "name": "totalEnergyTraded",
      "outputs": [
        {
          "internalType": "uint256",
          "name": "",
          "type": "uint256"
        }
      ],
      "stateMutability": "view",
      "type": "function"
    },
    {
      "inputs": [],
      "name": "totalVolumeWei",
      "outputs": [
        {
          "internalType": "uint256",
          "name": "",
          "type": "uint256"
        }
      ],
      "stateMutability": "view",
      "type": "function"
    },
    {
      "inputs": [],
      "name": "tradeCount",
      "outputs": [
        {
          "internalType": "uint256",
          "name": "",
          "type": "uint256"
        }
      ],
      "stateMutability": "view",
      "type": "function"
    },
    {
      "inputs": [
        {
          "internalType": "uint256",
          "name": "",
          "type": "uint256"
        }
      ],
      "name": "trades",
      "outputs": [
        {
          "internalType": "uint256",
          "name": "id",
          "type": "uint256"
        },
        {
          "internalType": "uint256",
          "name": "listingId",
          "type": "uint256"
        },
        {
          "internalType": "address",
          "name": "buyer",
          "type": "address"
        },
        {
          "internalType": "address",
          "name": "seller",
          "type": "address"
        },
        {
          "internalType": "string",
          "name": "buyerId",
          "type": "string"
        },
        {
          "internalType": "string",
          "name": "sellerId",
          "type": "string"
        },
        {
          "internalType": "uint256",
          "name": "energyAmount",
          "type": "uint256"
        },
        {
          "internalType": "uint256",
          "name": "totalPaid",
          "type": "uint256"
        },
        {
          "internalType": "uint256",
          "name": "platformFee",
          "type": "uint256"
        },
        {
          "internalType": "uint256",
          "name": "sellerReceived",
          "type": "uint256"
        },
        {
          "internalType": "uint256",
          "name": "timestamp",
          "type": "uint256"
        },
        {
          "internalType": "uint256",
          "name": "blockNumber",
          "type": "uint256"
        }
      ],
      "stateMutability": "view",
      "type": "function"
    },
    {
      "inputs": [],
      "name": "withdraw",
      "outputs": [],
      "stateMutability": "nonpayable",
      "type": "function"
    },
    {
      "stateMutability": "payable",
      "type": "receive"
    }
  ],
  "bytecode": "0x60806040526001805534801561001457600080fd5b50600080546001600160a01b03191633179055612041806100366000396000f3fe6080604052600436106101395760003560e01c80638c639a85116100ab578063c1973b9e1161006f578063c1973b9e1461037e578063c59d484714610393578063dcb5606c146103d7578063de74e57b146103ea578063e0c68a9d1461041e578063f3f437031461043457600080fd5b80638c639a85146102ee5780638da5cb5b14610304578063a9b07c261461033c578063bd14b49914610352578063bd55022a1461036857600080fd5b80632db25e05116100fd5780632db25e051461021f578063305a67a81461024c5780633ccfd60b1461026c57806341449e7f146102815780635f42da09146102a1578063892fa5d6146102ce57600080fd5b8063054564f0146101455780631030f05f1461017857806312e8e2c3146101a55780631e6c598e146101c7578063276fe712146101ff57600080fd5b3661014057005b600080fd5b34801561015157600080fd5b50610165610160366004611875565b610461565b6040519081526020015b60405180910390f35b34801561018457600080fd5b5061019861019336600461189f565b610492565b60405161016f9190611936565b3480156101b157600080fd5b506101c56101c036600461189f565b6105c7565b005b3480156101d357600080fd5b506101e76101e236600461189f565b61068f565b60405161016f9c9b9a999897969594939291906119b6565b34801561020b57600080fd5b5061016561021a366004611875565b610807565b34801561022b57600080fd5b5061023f61023a36600461189f565b610823565b60405161016f9190611a3f565b34801561025857600080fd5b506101c561026736600461189f565b610aa5565b34801561027857600080fd5b506101c5610c1f565b34801561028d57600080fd5b5061016561029c366004611b5b565b610ce6565b3480156102ad57600080fd5b506102c16102bc366004611bae565b610f98565b60405161016f9190611bd0565b3480156102da57600080fd5b506102c16102e9366004611bae565b611004565b3480156102fa57600080fd5b5061016560015481565b34801561031057600080fd5b50600054610324906001600160a01b031681565b6040516001600160a01b03909116815260200161016f565b34801561034857600080fd5b5061016560025481565b34801561035e57600080fd5b5061016560055481565b34801561037457600080fd5b5061016560035481565b34801561038a57600080fd5b506102c161106e565b34801561039f57600080fd5b50600254600354600454600554600b54604080519586526020860194909452928401919091526060830152608082015260a00161016f565b6101c56103e5366004611c14565b6110c6565b3480156103f657600080fd5b5061040a61040536600461189f565b611668565b60405161016f989796959493929190611c60565b34801561042a57600080fd5b5061016560045481565b34801561044057600080fd5b5061016561044f366004611bae565b60086020526000908152604090205481565b6009602052816000526040600020818154811061047d57600080fd5b90600052602060002001600091509150505481565b61049a6117fb565b6000828152600660209081526040918290208251610100810184528154815260018201546001600160a01b03169281019290925260028101805492939192918401916104e590611cc0565b80601f016020809104026020016040519081016040528092919081815260200182805461051190611cc0565b801561055e5780601f106105335761010080835404028352916020019161055e565b820191906000526020600020905b81548152906001019060200180831161054157829003601f168201915b505050918352505060038201546020820152600482015460408201526005820154606082015260068201546080820152600782015460a09091019060ff1660028111156105ad576105ad6118fe565b60028111156105be576105be6118fe565b90525092915050565b6000546001600160a01b031633146106125760405162461bcd60e51b81526020600482015260096024820152682737ba1037bbb732b960b91b60448201526064015b60405180910390fd5b600a8111156106545760405162461bcd60e51b815260206004820152600e60248201526d4d6178206665652069732031302560901b6044820152606401610609565b60018190556040518181527f8c4d35e54a3f2ef1134138fd8ea3daee6a3c89e10d2665996babdf70261e2c769060200160405180910390a150565b60076020526000908152604090208054600182015460028301546003840154600485018054949593946001600160a01b039384169492909316926106d290611cc0565b80601f01602080910402602001604051908101604052809291908181526020018280546106fe90611cc0565b801561074b5780601f106107205761010080835404028352916020019161074b565b820191906000526020600020905b81548152906001019060200180831161072e57829003601f168201915b50505050509080600501805461076090611cc0565b80601f016020809104026020016040519081016040528092919081815260200182805461078c90611cc0565b80156107d95780601f106107ae576101008083540402835291602001916107d9565b820191906000526020600020905b8154815290600101906020018083116107bc57829003601f168201915b50505050509080600601549080600701549080600801549080600901549080600a01549080600b015490508c565b600a602052816000526040600020818154811061047d57600080fd5b610899604051806101800160405280600081526020016000815260200160006001600160a01b0316815260200160006001600160a01b0316815260200160608152602001606081526020016000815260200160008152602001600081526020016000815260200160008152602001600081525090565b6000821180156108ab57506003548211155b6108e75760405162461bcd60e51b815260206004820152600d60248201526c496e76616c696420747261646560981b6044820152606401610609565b6000828152600760209081526040918290208251610180810184528154815260018201549281019290925260028101546001600160a01b03908116938301939093526003810154909216606082015260048201805491929160808401919061094e90611cc0565b80601f016020809104026020016040519081016040528092919081815260200182805461097a90611cc0565b80156109c75780601f1061099c576101008083540402835291602001916109c7565b820191906000526020600020905b8154815290600101906020018083116109aa57829003601f168201915b505050505081526020016005820180546109e090611cc0565b80601f0160208091040260200160405190810160405280929190818152602001828054610a0c90611cc0565b8015610a595780601f10610a2e57610100808354040283529160200191610a59565b820191906000526020600020905b815481529060010190602001808311610a3c57829003601f168201915b5050505050815260200160068201548152602001600782015481526020016008820154815260200160098201548152602001600a8201548152602001600b820154815250509050919050565b80600081118015610ab857506002548111155b610af65760405162461bcd60e51b815260206004820152600f60248201526e496e76616c6964206c697374696e6760881b6044820152606401610609565b60008181526006602052604081206007015460ff166002811115610b1c57610b1c6118fe565b14610b565760405162461bcd60e51b815260206004820152600a6024820152694e6f742061637469766560b01b6044820152606401610609565b600082815260066020526040902060018101546001600160a01b0316331480610b8957506000546001600160a01b031633145b610bc65760405162461bcd60e51b815260206004820152600e60248201526d139bdd08185d5d1a1bdc9a5e995960921b6044820152606401610609565b60078101805460ff19166002179055610bde8361173f565b60018101546040516001600160a01b039091169084907f8e25282255ab31897df2b0456bb993ac7f84d376861aefd84901d2d63a7428a290600090a3505050565b3360009081526008602052604090205480610c725760405162461bcd60e51b81526020600482015260136024820152724e6f7468696e6720746f20776974686472617760681b6044820152606401610609565b336000818152600860205260408082208290555183156108fc0291849190818181858888f19350505050158015610cad573d6000803e3d6000fd5b5060405181815233907f7084f5476618d8e60b11ef0d7d3f06914655adb8793e28ff7f018d4c76d505d59060200160405180910390a250565b6000808511610d2c5760405162461bcd60e51b81526020600482015260126024820152710456e65726779206d757374206265203e20360741b6044820152606401610609565b60008411610d705760405162461bcd60e51b815260206004820152601160248201527005072696365206d757374206265203e203607c1b6044820152606401610609565b81610db15760405162461bcd60e51b815260206004820152601160248201527014d95b1b195c9259081c995c5d5a5c9959607a1b6044820152606401610609565b60028054906000610dc183611d10565b90915550506002546000610dd58688611d29565b9050604051806101000160405280838152602001336001600160a01b0316815260200186868080601f0160208091040260200160405190810160405280939291908181526020018383808284376000920182905250938552505050602082018a9052604082018990526060820184905242608083015260a09091015260008381526006602090815260409182902083518155908301516001820180546001600160a01b0319166001600160a01b03909216919091179055908201516002820190610e9f9082611daa565b50606082015160038201556080820151600482015560a0820151600582015560c0820151600682015560e082015160078201805460ff19166001836002811115610eeb57610eeb6118fe565b021790555050336000818152600960209081526040808320805460018181018355918552928420909201879055600b805492830181559092527f0175b7a638427703f0dbe7bb9bbf987a2551717b34e79f33b5b1008d1fa01db9018590555190915083907f0ecda848df7d62a728a7d257d07c14224f9317196a57662ffc63d3bec1cca7bb90610f8690899089908d908d9089904290611e93565b60405180910390a35095945050505050565b6001600160a01b038116600090815260096020908152604091829020805483518184028101840190945280845260609392830182828015610ff857602002820191906000526020600020905b815481526020019060010190808311610fe4575b50505050509050919050565b6001600160a01b0381166000908152600a6020908152604091829020805483518184028101840190945280845260609392830182828015610ff85760200282019190600052602060002090815481526020019060010190808311610fe45750505050509050919050565b6060600b8054806020026020016040519081016040528092919081815260200182805480156110bc57602002820191906000526020600020905b8154815260200190600101908083116110a8575b5050505050905090565b826000811180156110d957506002548111155b6111175760405162461bcd60e51b815260206004820152600f60248201526e496e76616c6964206c697374696e6760881b6044820152606401610609565b60008181526006602052604081206007015460ff16600281111561113d5761113d6118fe565b146111775760405162461bcd60e51b815260206004820152600a6024820152694e6f742061637469766560b01b6044820152606401610609565b600084815260066020526040902060018101546001600160a01b031633036111da5760405162461bcd60e51b815260206004820152601660248201527543616e6e6f7420627579206f776e206c697374696e6760501b6044820152606401610609565b8261121a5760405162461bcd60e51b815260206004820152601060248201526f109d5e595c9259081c995c5d5a5c995960821b6044820152606401610609565b80600501543410156112655760405162461bcd60e51b8152602060048201526014602482015273125b9cdd59999a58da595b9d081c185e5b595b9d60621b6044820152606401610609565b60006064600154836005015461127b9190611d29565b6112859190611ecc565b905060008183600501546112999190611eee565b905060008360050154346112ad9190611eee565b60078501805460ff1916600117905590506112c78861173f565b600380549060006112d783611d10565b9091555050600354604080516101808101825282815260208082018c9052338284015260018801546001600160a01b031660608301528251601f8b01829004820281018201909352898352909160808301918b908b908190840183828082843760009201919091525050509082525060028701805460209092019161135b90611cc0565b80601f016020809104026020016040519081016040528092919081815260200182805461138790611cc0565b80156113d45780601f106113a9576101008083540402835291602001916113d4565b820191906000526020600020905b8154815290600101906020018083116113b757829003601f168201915b5050505050815260200186600301548152602001866005015481526020018581526020018481526020014281526020014381525060076000838152602001908152602001600020600082015181600001556020820151816001015560408201518160020160006101000a8154816001600160a01b0302191690836001600160a01b0316021790555060608201518160030160006101000a8154816001600160a01b0302191690836001600160a01b03160217905550608082015181600401908161149e9190611daa565b5060a082015160058201906114b39082611daa565b5060c0820151600682015560e0820151600782015561010082015160088201556101208201516009820155610140820151600a8083019190915561016090920151600b90910155336000908152602091825260408120805460018101825590825291812090910182905560038601546004805491929091611535908490611f01565b925050819055508460050154600560008282546115529190611f01565b909155505060018501546001600160a01b031660009081526008602052604081208054859290611583908490611f01565b9091555050600080546001600160a01b0316815260086020526040812080548692906115b0908490611f01565b909155505081156115ea57604051339083156108fc029084906000818181858888f193505050501580156115e8573d6000803e3d6000fd5b505b336001600160a01b031689827fd1998693ad0dc2ab3f5123ba79f50467544aed129a1ba2406bccb31c7e40bfab8860010160009054906101000a90046001600160a01b03168c8c8b6002018c600301548d600501548c42604051611655989796959493929190611f14565b60405180910390a4505050505050505050565b60066020526000908152604090208054600182015460028301805492936001600160a01b039092169261169a90611cc0565b80601f01602080910402602001604051908101604052809291908181526020018280546116c690611cc0565b80156117135780601f106116e857610100808354040283529160200191611713565b820191906000526020600020905b8154815290600101906020018083116116f657829003601f168201915b505050600384015460048501546005860154600687015460079097015495969295919450925060ff1688565b600b5460005b818110156117f65782600b828154811061176157611761611fdf565b9060005260206000200154036117e457600b61177e600184611eee565b8154811061178e5761178e611fdf565b9060005260206000200154600b82815481106117ac576117ac611fdf565b600091825260209091200155600b8054806117c9576117c9611ff5565b60019003818190600052602060002001600090559055505050565b806117ee81611d10565b915050611745565b505050565b6040518061010001604052806000815260200160006001600160a01b03168152602001606081526020016000815260200160008152602001600081526020016000815260200160006002811115611854576118546118fe565b905290565b80356001600160a01b038116811461187057600080fd5b919050565b6000806040838503121561188857600080fd5b61189183611859565b946020939093013593505050565b6000602082840312156118b157600080fd5b5035919050565b6000815180845260005b818110156118de576020818501810151868301820152016118c2565b506000602082860101526020601f19601f83011685010191505092915050565b634e487b7160e01b600052602160045260246000fd5b6003811061193257634e487b7160e01b600052602160045260246000fd5b9052565b602081528151602082015260018060a01b036020830151166040820152600060408301516101008060608501526119716101208501836118b8565b915060608501516080850152608085015160a085015260a085015160c085015260c085015160e085015260e08501516119ac82860182611914565b5090949350505050565b8c8152602081018c90526001600160a01b038b811660408301528a166060820152610180608082018190526000906119f08382018c6118b8565b905082810360a0840152611a04818b6118b8565b60c0840199909952505060e0810195909552610100850193909352610120840191909152610140830152610160909101529695505050505050565b60208152815160208201526020820151604082015260006040830151611a7060608401826001600160a01b03169052565b5060608301516001600160a01b03811660808401525060808301516101808060a0850152611aa26101a08501836118b8565b915060a0850151601f198584030160c0860152611abf83826118b8565b60c087015160e08781019190915287015161010080880191909152870151610120808801919091528701516101408088019190915287015161016080880191909152909601519190940152509192915050565b60008083601f840112611b2457600080fd5b50813567ffffffffffffffff811115611b3c57600080fd5b602083019150836020828501011115611b5457600080fd5b9250929050565b60008060008060608587031215611b7157600080fd5b8435935060208501359250604085013567ffffffffffffffff811115611b9657600080fd5b611ba287828801611b12565b95989497509550505050565b600060208284031215611bc057600080fd5b611bc982611859565b9392505050565b6020808252825182820181905260009190848201906040850190845b81811015611c0857835183529284019291840191600101611bec565b50909695505050505050565b600080600060408486031215611c2957600080fd5b83359250602084013567ffffffffffffffff811115611c4757600080fd5b611c5386828701611b12565b9497909650939450505050565b8881526001600160a01b038816602082015261010060408201819052600090611c8b8382018a6118b8565b9150508660608301528560808301528460a08301528360c0830152611cb360e0830184611914565b9998505050505050505050565b600181811c90821680611cd457607f821691505b602082108103611cf457634e487b7160e01b600052602260045260246000fd5b50919050565b634e487b7160e01b600052601160045260246000fd5b600060018201611d2257611d22611cfa565b5060010190565b8082028115828204841417611d4057611d40611cfa565b92915050565b634e487b7160e01b600052604160045260246000fd5b601f8211156117f657600081815260208120601f850160051c81016020861015611d835750805b601f850160051c820191505b81811015611da257828155600101611d8f565b505050505050565b815167ffffffffffffffff811115611dc457611dc4611d46565b611dd881611dd28454611cc0565b84611d5c565b602080601f831160018114611e0d5760008415611df55750858301515b600019600386901b1c1916600185901b178555611da2565b600085815260208120601f198616915b82811015611e3c57888601518255948401946001909101908401611e1d565b5085821015611e5a5787850151600019600388901b60f8161c191681555b5050505050600190811b01905550565b81835281816020850137506000828201602090810191909152601f909101601f19169091010190565b60a081526000611ea760a08301888a611e6a565b9050856020830152846040830152836060830152826080830152979650505050505050565b600082611ee957634e487b7160e01b600052601260045260246000fd5b500490565b81810381811115611d4057611d40611cfa565b80820180821115611d4057611d40611cfa565b6001600160a01b038916815260e06020808301829052600091611f3a9084018a8c611e6a565b838103604085015260008954611f4f81611cc0565b80845260018281168015611f6a5760018114611f8457611fb2565b60ff1984168688015282151560051b860187019450611fb2565b8d6000528660002060005b84811015611faa5781548882018a0152908301908801611f8f565b870188019550505b505050506060850198909852505050608081019390935260a083019190915260c090910152949350505050565b634e487b7160e01b600052603260045260246000fd5b634e487b7160e01b600052603160045260246000fdfea264697066735822122049d6feeffc9e2d5f6c5a8db219879e95e0ec0a73e9dc7e9b074e9065d7ab4fcb64736f6c63430008140033",
  "linkReferences": {},
  "deployedLinkReferences": {}
}